:100000000200991200887BFF7A0079B812005F30F5
:1000100098FD1200B38F0874E02508F5087BFF7A7D
:100020000079D512005FAF081200A57F0D1200A560
:1000300080D4BB010CE58229F582E5833AF583E0A3
:10004000225006E92582F8E622BBFE06E92582F861
:10005000E222E58229F582E5833AF583E493228B57
:10006000098A0A890BE4FDFCAB09AA0AA90B8D8257
:100070008C83120032FFFB3395E04B600A1200A51F
:100080000DBD00010C80E122C29FD29E75892075B2
:100090008DFDD28ED299D29C22787FE4F6D8FD7560
:1000A000810B0200038F993099FDC29922A298E436
:1000B00033FF22C298AF99226E6861702076616F1B
:1000C000206368752063616920696E207468756FAC
:0800D0006E673A20002D3E008E
:00000001FF
