:030000000202D524
:0C02D500787FE4F6D8FD75811302031C4D
:100409004D616E64657669636573004C43442031C0
:10041900004C494450004C43442032004C656E2046
:0F0429006D612078656D00796F7574756265007F
:0E05330001087E010970020A0000020C00148B
:10048F008F118E108D0F8C0EE47B19FAF9F8120074
:10049F00528F118E108D0F8C0E780E74FF1200A3D9
:0704AF00EC4D4E4F70F322EB
:10011600AF081205581204F77D017C007F017E00AE
:1001260012043E7BFF7A0479091204B67D027C0034
:100136007F017E0012043E7BFF7A0479141204B616
:10014600AF091205581204F77D017C007F017E007D
:1001560012043E7BFF7A04791A1204B67D027C00F3
:100166007F017E0012043E7BFF7A04791F1204B6DB
:100176007FE87E037D007C0012048FAF08120558CD
:100186001204DBAF091205581204DBAF081205583A
:100196007D017C007F017E0012043E7BFF7A04799C
:1001A600251204B67D027C007F017E0012043EAF5C
:1001B6000BAE0A120204AF091205587D017C007FBE
:1001C600017E0012043E7BFF7A0479301204B67D6C
:1001D600027C007F017E0012043EAF0DAE0C1202BF
:1001E600047FFA7E007D007C0012048F050BE50B70
:0E01F6007002050A050DE50D7091050C808D57
:1005220020202020202020202020202020202020C9
:0105320000C8
:0D054200D2870000D2860000C28700002290
:09054F00C286C287D286D287223F
:030558008F1322DC
:08051000120542AF131203A40F
:0A051800C286D287D2862087FD221A
:0203A400AD07A3
:1003A600E4FCECC39408748094805025C2867E00D9
:1003B6007480A804088006CEA2E713CE13D8F8FFEF
:1003C600EDFBEF5B6003D38001C39287D2860C807E
:0103D600D155
:0103D7002203
:10046600EFC454F0F510EF54F0F511120510E51134
:100476001203D8E51144081203DAE5101203D8E591
:090486001044081203DA02054FCC
:100361007D0AAE0EAF0F7C0012001C7C007D0A12CC
:06037100001CED2430FF2A
:10037700EFC454F0F511EF54F0F512120510E51221
:10038700440D1203DAE51244091203DAE511440DAC
:0D0397001203DAE51144091203DA02054FE2
:1004B6008B0E8A0F8910AB0EAA0FA91012000360CB
:1004C600130510E5107002050F14F9120003FF1250
:0504D600037780E22223
:0D03D800440CFF1203A41205187F017E00E3
:1003E500D3EF9400EE9400401A7D797C00ED1D70EA
:1003F500011CED4C70F7000000000000EF1F70E0DD
:030405001E80DD79
:0104080022D1
:1004F7007F021204667F281204667F0C1204667F4F
:09050700061204667F010204667D
:060438007C007F017E0044
:10043E00ED64014C7010ED247EFDE43CCD2FF50FE4
:10044E00ED3EF50E800DEF243FFFE43EF50EEF443A
:08045E0080F50FAF0F020466E8
:100204008E0E8F0FD3E50F9409E50E648094805011
:1002140004EF0202CED3E50F9409E50E64809480C6
:10022400402DE50F9464E50E648094805021AE0E59
:10023400AF0F7C007D0A12001CEF2430FF120377FD
:10024400AE0EAF0F7C007D0A12001CED0202CED36D
:10025400E50F9463E50E64809480402FE50F94E8E5
:10026400E50E648094835023AE0EAF0F7C007D6452
:1002740012001CEF2430FF120377120361AE0EAF9D
:100284000F7C007D0A12001CED803FD3E50F94E73C
:10029400E50E648094834038E50F9410E50E648085
:1002A40094A7502CAE0EAF0F7C037DE812001CEF18
:1002B4002430FF1203777D64120363120361AE0ED0
:1002C400AF0F7C007D0A12001CED2430FF1203776F
:0102D4002207
:1004DB007D011204387BFF7A0579221204B67D0266
:0C04EB001204387BFF7A0579220204B667
:1002E100020116E493A3F8E493A34003F68001F21C
:1002F10008DFF48029E493A3F85407240CC8C3331E
:10030100C4540F4420C8834004F456800146F6DFEC
:10031100E4800B0102040810204080900533E47E44
:10032100019360BCA3FF543F30E509541FFEE493E1
:10033100A360010ECF54C025E060A840B8E493A3A8
:10034100FAE493A3F8E493A3C8C582C8CAC583CAD3
:10035100F0A3C8C582C8CAC583CADFE9DEE780BE8B
:0105410000B9
:10000300BB010689828A83E0225002E722BBFE02FB
:09001300E32289828A83E493222E
:10001C00C2D5EC30E709B2D5E4C39DFDE49CFCEEFF
:10002C0030E715B2D5E4C39FFFE49EFE1200C1C3B6
:10003C00E49DFDE49CFC80031200C130D507C3E4B1
:06004C009FFFE49EFE226E
:10005200E88FF0A4CC8BF0A42CFCE98EF0A42CFC4D
:100062008AF0EDA42CFCEA8EF0A4CDA8F08BF0A4CB
:100072002DCC3825F0FDE98FF0A42CCD35F0FCEB2A
:100082008EF0A4FEA9F0EB8FF0A4CFC5F02ECD39EF
:0F009200FEE43CFCEAA42DCE35F0FDE43CFC225C
:1000A1007401FF3395E0FEFDFC080808E6CF2FF64A
:1000B10018E6CE3EF618E6CD3DF618E6CC3CF62223
:1000C100BC000BBE0029EF8DF084FFADF022E4CC23
:1000D100F875F008EF2FFFEE33FEEC33FCEE9DECEC
:1000E100984005FCEE9DFE0FD5F0E9E4CEFD22ED32
:1000F100F8F5F0EE8420D21CFEADF075F008EF2F7C
:10010100FFED33FD4007985006D5F0F222C398FD6C
:050111000FD5F0EA2209
:00000001FF
