:0A018300C0F9A4B0999282F88090B0
:04000300AB07AA0697
:100007007C277D101200D18F0E7C277D10AF03AEA9
:10001700021200D1AA04AB057C037DE8AF03AE0250
:100027001200D18F0D7C037DE8AF03AE021200D121
:10003700AA04AB057C007D64AF03AE021200D18F2A
:100047000C7C007D64AF03AE021200D1AA04AB059D
:100057007C007D0AAF03AE021200D18F0B7C007DBE
:100067000AAF03AE021200D18D0AE50E9001839309
:10007700F580C2A17F017E00120151D2A1E50D904A
:10008700018393F580C2A27F017E00120151D2A2A3
:10009700E50C90018393F580C2A37F017E001201D6
:1000A70051D2A3E50B90018393F580C2A47F017E13
:1000B70000120151D2A4E50A90018393F580C2A5ED
:0900C7007F017E00120151D2A557
:0100D000220D
:100126005389F0438905D28CAF8C7508008F09E599
:1001360009750900F508AF8AEF4209E508AD8CB5E7
:0B01460005E6AF09AE0812000380DDE3
:10015100E4FDFCC3ED9FEE6480F8EC6480985015DB
:10016100E4FBFA0BBB00010AEB647A4A70F50DBDA2
:0501710000010C80DE1E
:010176002266
:0300000002017783
:0C017700787FE4F6D8FD75810E020126A9
:1000D100BC000BBE0029EF8DF084FFADF022E4CC13
:1000E100F875F008EF2FFFEE33FEEC33FCEE9DECDC
:1000F100984005FCEE9DFE0FD5F0E9E4CEFD22ED22
:10010100F8F5F0EE8420D21CFEADF075F008EF2F6B
:10011100FFED33FD4007985006D5F0F222C398FD5C
:050121000FD5F0EA22F9
:00000001FF
