:030000000200A853
:0C00A800787FE4F6D8FD75810702009512
:100095001200B4C2B37F997E001200337FF41200C0
:0300A5005780F28F
:0700B400D2B3C2B0D2B222A8
:10003300E4FEEEC39408748094805017C2B0EF308E
:10004300E704D2B18002C2B1D2B0EF25E0FFC2B063
:030053000E80DF3D
:010056002287
:10007700E4FEEEC39408748094805011EF25E0FFEE
:0D008700D2B030B203430701C2B00E80E5D5
:010094002249
:10000300E4FDEDC39408748094805021C2B0EF30B6
:10001300E704D2B18002C2B1EE25E0FED2B0EF25F3
:0F002300E0FF30B203430601C2B00D80D5AF0637
:0100320022AB
:10005700E4FDFCC3ED9FEC9E5015E4FBFA0BBB00DF
:0F006700010AEB64724A70F50DBD00010C80E4D4
:010076002267
:00000001FF
